:100000000C9434000C943E000C943E000C943E0082
:100010000C943E000C943E000C943E000C943E0068
:100020000C943E000C943E000C943E000C943E0058
:100030000C943E000C943E000C943E000C943E0048
:100040000C943E000C943E000C943E000C943E0038
:100050000C943E000C943E000C943E000C943E0028
:100060000C943E000C943E0011241FBECFEFD8E04C
:10007000DEBFCDBF0E9440000C945E000C940000D7
:1000800080E284B983EE8AB98CE18BB929B189B158
:10009000887099B19071882369F091110DC080E04A
:1000A00095B1892B85B929B189B1887099B19071C1
:1000B0008111F3CF9111F3CF80E2F2CFF894FFCF0B
:00000001FF
